:1000000019C033C032C031C030C02FC02EC02DC087
:100010002CC056C12AC029C028C027C010C125C085
:1000200024C023C022C021C020C01FC01EC01DC0CC
:100030001CC01BC011241FBECFEFD2E0DEBFCDBF5E
:1000400011E0A0E0B1E0EAEFF2E002C005900D920D
:10005000AA31B107D9F721E0AAE1B1E001C01D92B0
:10006000AA32B207E1F702D046C1CACF10922701E7
:10007000109229011092260183E084B98FEF87B98D
:100080008AB984E187BD82E080936E0084BD85BD1E
:1000900090E29093B6002FE936E891E0215030408D
:1000A0009040E1F700C00000E0E7F0E0108210921D
:1000B000B2001092B00095E09093B10091E097BB30
:1000C00090838093C00088E18093C10086E0809394
:1000D000C2001092C5008CE08093C4008DE880932C
:1000E00064007894EAE1F1E0A0ECB0E026EC30E0C6
:1000F00060E271E00F2EF4E6CF2ED12CF02D4EE60B
:1001000050E002E011E09FEF85818A3021F41582F2
:1001100084818F5F84838481863021F4148283817B
:100120008F5F838383818A3021F4138282818F5F82
:1001300082838281863021F4128281818F5F818364
:1001400081818A3021F4118280818F5F8083808158
:10015000823029F48181843011F4108211828C91D3
:1001600088230CF042C0E9018881809328018C919A
:1001700085FFFDCF80912801E901888380912901C5
:100180008630B1F480912801883781F4F894EB012E
:100190008D8185838C8184838B8183838A81828313
:1001A0008981818388818083789402C0109229019B
:1001B00080912801823611F4109229018091280142
:1001C000803398F0809128018A3378F4E0902901F7
:1001D000F12C809128018053E701C05EDE4F8883B7
:1001E000809129018F5F809329011A991BC083B7E1
:1001F000817F866083BF83B7816083BF8091260142
:1002000081110BC010932601E601888180628883EA
:10021000EA01188298B91BB82898889583B78E7F11
:1002200083BF72CF80912601882331F0E601888157
:100230008F7D8883EA0108831092260165CF1F9283
:100240000F920FB60F9211248F93EF93FF9380912B
:1002500027018F5F8093270180912701863011F459
:10026000109227018FEF88B91BB82898E0912701D9
:10027000F0E0E65EFE4FE081F0E0E05FFE4F80815F
:100280008BB9E0912701F0E0E65EFE4FE081F0E0FF
:10029000EA5FFE4F8081882311F0289A01C02898D8
:1002A000E0912701F0E0E050FF4F8081809588B910
:1002B000FF91EF918F910F900FBE0F901F901895A7
:1002C0001F920F920FB60F9211248F939F93EF936B
:1002D000FF9395B182E0892785B9EAE1F1E0858154
:1002E0008F5F8583FF91EF919F918F910F900FBE4C
:0A02F0000F901F901895F894FFCFAF
:1002FA0020010204081001000000010101000101AF
:0A030A00F848BCDC4CD4F4C8FCDC5D
:00000001FF
