S0120000426F646765436C6F636B2E7372656345
S113000019C033C032C031C030C02FC02EC02DC083
S11300102CC08EC12AC029C028C027C048C125C011
S113002024C023C022C021C020C01FC01EC01DC0C8
S11300301CC01BC011241FBECFEFD2E0DEBFCDBF5A
S113004011E0A0E0B1E0EAE6F3E002C005900D9211
S1130050AA31B107D9F721E0AAE1B1E001C01D92AC
S1130060AA32B207E1F702D07EC1CACF10922701AB
S1130070109229011092260183E084B98FEF87B989
S11300808AB984E187BD82E080936E0084BD85BD1A
S113009080E28093B6002FE986E891E02150804009
S11300A09040E1F700C00000E0E7F0E01082109219
S11300B0B2001092B00085E08093B10081E087BB6C
S11300C0808382E08093C00088E18093C10086E051
S11300D08093C2001092C5008CE08093C4008DE828
S11300E0809364007894AFE1B1E08EE191E06DE13A
S11300F071E00F2EFCE1EF2EF1E0FF2EF02D0F2E1C
S1130100FBE1CF2EF1E0DF2EF02D0F2EFAE1AF2E22
S1130110F1E0BF2EF02DE0ECF0E026EC30E00F2E05
S1130120F5E28F2EF1E09F2EF02D0F2EF4E22F2E0C
S1130130F1E03F2EF02D4EE650E06894552451F83E
S11301406624639477247A941C911A3089F51C925E
S1130150EC0118811F5F18831881163049F5188245
S1130160EB0118811F5F188318811A3009F5188272
S1130170E70118811F5F188318811630C9F41882AB
S1130180E60118811F5F188318811A3029F4188238
S1130190E50118811F5F1883E5011881123041F4CD
S11301A0E6011881143021F4E5011882E601188271
S11301B0108111230CF04FC0E9011881109328011C
S11301C0108115FFFDCF10912801E90118831091CA
S11301D02901163009F5109128011837E9F4F8942B
S11301E0E40118811C93E1011881EC011883C3E236
S11301F0D1E01881EB011883C2E2D1E01881E70154
S11302001883C1E2D1E01881E6011883C0E2D1E08D
S11302101881E5011883789410912801123619F495
S11302201092290118C010912801103378F0109110
S113023028011A3358F40091290110E04090280154
S1130240D0ED4D0E005E1E4FE80148821091290149
S11302501F5F109329011A991CC013B7117F1660F0
S113026013BF13B7116013BF1091260111110CC0F5
S113027060922601C4E6D0E0188110621883EA0176
S1130280188278B81BB82898889513B71E7F13BFB7
S11302905BCF10912601112339F0C4E6D0E0188118
S11302A01F7D1883EA015882109226014DCF1F92B8
S11302B00F920FB60F9211248F93EF93FF938091B7
S11302C027018F5F8093270180912701863011F4E5
S11302D0109227018FEF88B91BB82898E091270165
S11302E0F0E0E65EFE4FE081F0E0E05FFE4F8081EB
S11302F08BB9E0912701F0E0E65EFE4FE081F0E08B
S1130300EA5FFE4F8081882311F0289A01C0289863
S1130310E0912701F0E0E050FF4F8081809588B99B
S1130320FF91EF918F910F900FBE0F901F90189532
S11303301F920F920FB60F9211248F939F93EF93F6
S1130340FF9395B182E0892785B9EFE1F1E08081DF
S11303508F5F8083FF91EF919F918F910F900FBEDC
S10D03600F901F901895F894FFCF3A
S113036A200102040810010000000101010001013A
S10D037AF848BCDC4CD4F4C8FCDCE9
S9030000FC
