:1000000019C033C032C031C030C02FC02EC02DC087
:100010002CC08AC12AC029C028C027C044C125C01D
:1000200024C023C022C021C020C01FC01EC01DC0CC
:100030001CC01BC011241FBECFEFD2E0DEBFCDBF5E
:1000400011E0A0E0B1E0E2E6F3E002C005900D921D
:10005000AA31B107D9F721E0AAE1B1E001C01D92B0
:10006000AC32B207E1F702D07AC1CACF10922B01AD
:1000700010922A0110922701109229011092260154
:1000800083E084B98FEF87B98AB984E187BD82E0C4
:1000900080936E0084BD85BD80E28093B6002FE919
:1000A00086E891E0215080409040E1F700C00000D8
:1000B000E0E7F0E010821092B2001092B00085E00C
:1000C0008093B10081E087BB808382E08093C00091
:1000D00088E18093C10086E08093C2001092C50041
:1000E0008CE08093C4008DE8809364007894AFE145
:1000F000B1E08EE191E00DE111E00F2EFCE1EF2E79
:10010000F1E0FF2EF02D0F2EFBE1CF2EF1E0DF2EE0
:10011000F02D0F2EFAE1AF2EF1E0BF2EF02DE0EC26
:10012000F0E026EC30E00F2EF5E28F2EF1E09F2E6E
:10013000F02D0F2EF4E22F2EF1E03F2EF02D4EE6A3
:1001400050E06894442441F85524539466246A94FA
:100150006C916A3089F51C92EC0168816F5F68834D
:100160006881663049F51882E80168816F5F6883AD
:1001700068816A3009F51882E70168816F5F6883DA
:1001800068816630C9F41882E60168816F5F688310
:1001900068816A3029F41882E50168816F5F68839D
:1001A000E5016881623041F4E6016881643021F440
:1001B000E5011882E6011882608166230CF047C0D1
:1001C000E901688160932801608165FFFDCF60913E
:1001D0002801E901688360912901663009F5F894E6
:1001E000E40168816C93E1016881EC016883C3E2FA
:1001F000D1E06881E8016883C2E2D1E06881E7016B
:100200006883C1E2D1E06881E6016883C0E2D1E0A1
:100210006881E501688310922B0110922A0178947D
:1002200060912801623619F41092290110C0609182
:10023000290170E070902801D0ED7D0E605E7E4F48
:10024000EB017882609129016F5F609329011A990F
:100250001CC063B7617F666063BF63B7616063BFE3
:100260006091260161110CC050922601C4E6D0E0D5
:10027000688160626883EA01188268B81BB82898B0
:10028000889563B76E7F63BF63CF60912601662355
:1002900039F0C4E6D0E068816F7D6883EA01488266
:1002A0001092260155CF1F920F920FB60F92112474
:1002B0008F93EF93FF93809127018F5F80932701A6
:1002C00080912701863011F4109227018FEF88B9B1
:1002D0001BB82898E0912701F0E0E65EFE4FE08130
:1002E000F0E0E05FFE4F80818BB9E0912701F0E004
:1002F000E65EFE4FE081F0E0EA5FFE4F80818823FA
:1003000011F0289A01C02898E0912701F0E0E05010
:10031000FF4F8081809588B9FF91EF918F910F9069
:100320000FBE0F901F9018951F920F920FB60F924D
:1003300011248F939F93EF93FF9395B182E08927C8
:1003400085B9EFE1F1E080818F5F8083FF91EF91CC
:100350009F918F910F900FBE0F901F901895F8945A
:02036000FFCFCD
:100362002001020408100100000001010100010146
:0A037200F848BCDC4CD4F4C8FCDCF5
:00000001FF
